:1000000012C0189518951895189518951895189563
:1000100075C13AC1189518951895189518951895A1
:100020001895189518958FE58DBFC8E3E0E24E2E20
:1000300084E08EBFD4E0F4E05F2EA89584B7082E4C
:10004000877F84BF88E1992781BD91BDEEEFF3E002
:10005000A0E6B0E088278D933197E9F77FD2662438
:100060008CE0C4D287E083BF00E010E020E030E005
:10007000A0E6B0E00D931D932D933C93ACE6B0E069
:10008000E0E6FCE0D5D3A0E7B0E0E4E6FCE0D0D3C6
:10009000709176007F7770937600709176007F7B09
:1000A0007093760080E08FBD84E08EBD8EB5887F32
:1000B0008EBD88E697E69DBD8CBD87E083BF84E05A
:1000C0008EBD789479B7716079BF79B7746079BF64
:1000D00074E077BB7BEF78BB70E071BB7FEF72BBE6
:1000E000E8EFF0E080E482D258E0C895802D78D225
:1000F00031965A95D1F704C00E11111F1B1B1F1FFB
:10010000E1E0F0E022D2829974C0A6E3B0E00C9165
:1001100002FB81E00EF480E08F93A6E7B0E08C91C3
:1001200086FB81E00EF480E09F918923882309F407
:1001300060C0C29A70917600706870937600E3E0B8
:10014000F0E003D2882783BF8EB5887F8EBDE4E6BA
:10015000F0E002D4E4E6F0E0FAD3D6D4EDE0F0E04B
:10016000ACE6B0E0C7D3E8E6FCE071D5ECE6F0E041
:10017000EED3CAD4EDE0F0E0A0E7B0E0BBD3ECE60C
:10018000FCE065D5E0E7F0E0E2D3BED4EDE0F0E0DE
:10019000A0E7B0E0AFD3E0E7F0E0DED3E0E7FCE0DB
:1001A0004DD559D4EDE0F0E0A0E7B0E0A3D3BCD149
:1001B000E0E8FCE0B1D1B6D1ECE8FCE0ADD1709163
:1001C00076007F7770937600C29870E072BF00E08F
:1001D00010E020E030E0A0E6B0E00D931D932D93F9
:1001E0003C9387E083BF88E697E69DBD8CBD84E0A5
:1001F0008EBDA0E3B0E00C9101FB81E00EF480E045
:100200008F93A6E7B0E08C9187FB81E00EF480E04D
:100210009F918923882309F415C0A6E7B0E08C914B
:1002200086FB0EF40FC070917600706470937600B8
:10023000882783BF8EB5887F8EBD8FE710E183D17D
:1002400080E0CED180991FC0A6E7B0E08C9186FBFC
:100250000EF019C0709176007F7B7093760070E08D
:1002600072BF00E010E020E030E0A0E6B0E00D93C7
:100270001D932D933C9387E083BF88E697E69DBD51
:100280008CBD84E08EBD3FCF0F921F922F923F9284
:100290004F925F927F92AF92BF920F931F932F93D3
:1002A0003F934F935F936F937F938F939F93AF93FE
:1002B000BF93CF93DF93EF93FF938FB78F93A0E616
:1002C000B0E015D18F918FBFFF91EF91DF91CF916A
:1002D000BF91AF919F918F917F916F915F914F915E
:1002E0003F912F911F910F91BF90AF907F905F90A2
:1002F0004F903F902F901F900F9018950F921F9244
:100300002F923F924F925F927F92AF92BF920F9344
:100310001F932F933F934F935F936F937F938F938D
:100320009F93AF93BF93CF93DF93EF93FF938FB7D9
:100330008F93882783BF8EB5887F8EBDF5D082B717
:10034000A4E7B0E08D9388278C93E4E7FCE07FD4AA
:10035000E0E6F0E0FCD247D3D7D3EDE0F0E0A4E64E
:10036000B0E0C8D2E4E7F0E0D190E080FF240027BD
:1003700022D3F7D2E4E6F0E0EAD212D4EDE0F0E0E6
:10038000A4E6B0E0B7D2E8E7FCE061D4E4E6F0E050
:10039000DED2BAD3EDE0F0E0A4E6B0E0ABD2E4E622
:1003A000F0E0DAD2E4E6F0E0D2D2AED3EDE0F0E075
:1003B000A8E6B0E09FD2E8E6F0E0C9D2ECE7FCE0C6
:1003C00046D4ACD210F009F001C024C0E8E6F0E059
:1003D000C3D2ECE6F0E0BBD23ED3EDE0F0E0A8E61D
:1003E000B0E088D2E0E7FCE032D4E8E6F0E0AFD25B
:1003F000C8D3EDE0F0E0A8E6B0E07CD2E0E7F0E0C2
:10040000ABD2E8E6F0E0A3D27FD3EDE0F0E0A8E6DF
:10041000B0E070D2A6E7B0E08C9187FB0EF008C088
:10042000EAE9FCE079D07ED0EAEAFCE075D02DC0A4
:10043000A8E0B4E0AF93BF93E4E6F0E088D211D136
:1004400011E002E0BF91AF9108D2E8E0F4E0A8E04B
:10045000B4E04BD259D0EAEBFCE05ED063D0A8E028
:10046000B4E0AF93BF93E8E6F0E071D2FAD011E0C8
:1004700002E0BF91AF91F1D1E8E0F4E0A8E0B4E090
:1004800034D242D0E0ECFCE047D070E072BF00E034
:1004900010E020E030E0A0E6B0E00D931D932D9336
:1004A0003C9387E083BF88E697E69DBD8CBD84E0E2
:1004B0008EBD8F918FBFFF91EF91DF91CF91BF9153
:1004C000AF919F918F917F916F915F914F913F91EC
:1004D0002F911F910F91BF90AF907F905F904F90A1
:1004E0003F902F901F900F901895F894FFCF0D918B
:1004F0001D912D913C910F5F1F4F2F4F3F4F3C930C
:100500002E931E930E930895A8E0B4E08D91882356
:1005100011F066D0FBCF089583D1802D11F060D00B
:10052000FBCF089580EC62C081E060D014D080E8F9
:100530005DC08FE7213039F08FEB223021F08FE85A
:10054000233009F08FEC810F51C088EE93E07AD010
:100550003197D9F7089583E0992774C08AEF90E026
:1005600071D0A09AA19AA29AA39AA49AA59AAD989A
:1005700085E090E067D0AC98A898A998AA9AAB9A21
:10058000AC9AEF93FF93E6EFF0E050D0FF91EF913C
:10059000AC9855D0AC9AEF93FF93E6EFF0E046D0DD
:1005A000FF91EF91AC984BD0AC9AEF93FF93E6EFAD
:1005B000F0E03CD0FF91EF91AC9841D0AB98AC9A71
:1005C000EF93FF93E6EFF0E031D0FF91EF91AC981D
:1005D00036D088E20BD08EE009D086E007D00895AF
:1005E000AD9A829505D004D02AD00895AD98F9CF60
:1005F000859510F4AB9A01C0AB98859510F4AA9A32
:1006000001C0AA98859510F4A99A01C0A99885956A
:1006100010F4A89A01C0A898AC9AEF93FF93E6EF64
:10062000F0E004D0FF91EF91AC9808953197F1F785
:100630000895689462F80895E89462F8089581E056
:1006400090E000C0EF93FF93EE27E82BE92B31F009
:10065000E4ECF9E03197F1F70197D1F7FF91EF91D1
:1006600008958DE207FD8D938F2D881F802F881FA1
:100670008F57082F6894F7F8802F87FF15C0809553
:100680008395082F80E38D938EE28D93802F815286
:1006900028F080E38D9399279C93089544270A9529
:1006A000802F09F192D01FC0805230F09EE49D93BC
:1006B00081E48D939D93EFCF4427DF92EF92FF92D9
:1006C0000F938FE1801B11F0082F7FD085D09EE221
:1006D0009D930F91FF90EF90DF9044270395003298
:1006E00009F4D7CF27D03F93EAE6F7E038E12F2D82
:1006F0001E2D0D2DFF24EE24DD244427000F111F95
:10070000221F88F42F923F928BD0102C89D0202C5E
:1007100087D0302C85D03197410DD21CE31CF01CC2
:100720003F902F9001C0339631963A9539F73F911B
:1007300007D0B3CFDD0CEE1CFF1C0A95D9F7089546
:10074000002719E058D08F93802B11F0039501C03A
:100750008F911A95B9F7802F882309F49ACF8F913A
:10076000805D8D930A95D9F796CF0065CD1D80B237
:10077000E60E40597307A0ACB90350D6DC01286BD4
:10078000EE0094357700CA9A3B0065CD1D00B2E6B5
:100790000E0059730700ACB90300D6DC01006BEE04
:1007A0000000357700009A3B0000CD1D0000E60EEA
:1007B000000073070000B9030000DC010000EE0038
:1007C0000000770000003B000000F694E794D79407
:1007D00047950A95D1F7089500270DD08F9303957B
:1007E0008F2D8E298D29842BC1F78F91805D8D935C
:1007F0000A95D9F750CF1F930F93002710E2440FAB
:10080000DD1CEE1CFF1C001F802F9AE0890B10F0EE
:10081000082F43951A9599F7802F0F911F910895EE
:10082000C89531960020089591E005C092E003C07C
:1008300094E001C098E0F4DF0D929A95E1F70895F5
:1008400099278D9193958823E1F7939511968C9331
:1008500011978E919A95D1F70895EA2FFB2F0024D6
:100860004C918D9103948E32E1F711248D91139464
:100870008823E1F71A94101640F41197202F2119BC
:10088000239580E38D932A95E9F7113039F599275F
:10089000AE2FBF2FA00DB91FA00FB91F8C919C9335
:1008A000853308F421C031E08E918E32E9F38D3228
:1008B00041F0830F8A3319F480E331E001C033271C
:1008C0008C93AE1789F7332341F0AE2FBF2FB8DFDB
:1008D00081E34D3209F43196808308958827E00D35
:1008E000F81FE00FF81F8083089581918D9388236E
:1008F000E1F7089594E081918D939A95E1F7089539
:10090000B7FE089590E8B91611F4D0FE08959FEF50
:10091000D91AE90AF90A09F4039508950F928F93F9
:100920009F93D216E306F4060FB680E890E880277E
:1009300095270FBE890739F00FB6892B87FD02C0B6
:1009400081E008260FBE9F918F910F900895D1905E
:10095000E190F1900191089521913191419151914E
:100960000895502F2D2D3E2D4F2D612F0895D09499
:10097000E094F09491E0D90E9927E91EF91E1095A4
:100980000895652F90E8440F551F5927990F4795F3
:100990006078102F90E8FF0C001F0927990FF7943B
:1009A000107800380895FF0C90E89027110F979564
:1009B000F794092F08951127BD2CDE2CEF2CF02E73
:1009C0000EE1FF2039F4FE2CED2CDB2CBB2408506B
:1009D000C2F775C032F00A95BB0CDD1CEE1CFF1C83
:1009E000F9CF8EDFE0CF102FBD2CDE2CEF2CF02EB8
:1009F00011234AF4B094D094E094F0949FEFB91A84
:100A0000D90AE90AF90A0EE1FF2039F4FE2CED2C8F
:100A1000DB2CBB240850C2F752C032F00A95BB0C45
:100A2000DD1CEE1CFF1CF9CF6BDFBDCF2DEC3CECC9
:100A30004CEC5DE366270FC08ADF93DFDD24EE24F4
:100A400090E8F92E0FE307C087DF05C02227332780
:100A500040E251E46627552351F1002381F191DFF3
:100A600071F11627005850580894050B18F407FD2B
:100A700003C025C007FD23C0469537952795F694FA
:100A8000E794D79425D0FF202AF0DD0CEE1CFF1C44
:100A9000015073F09D2D969548F0DD203AF4EE203C
:100AA0002AF491E0D90E9927E91EF91E7CCF07C0E0
:100AB0009FE7092FF92A9FEFD92EE92E0895DD240B
:100AC000EE24FF240027112708950FE79FEFF2CFB0
:100AD0009F929924AA24BB2488E1D216E306F40647
:100AE00028F0D21AE30AF40A089401C08894991CE9
:100AF000AA1CBB1CDD0CEE1CFF1C8A9571F7D92CBF
:100B0000EA2CFB2C9F9008953CDFD1F05038C1F0C7
:100B100016270058952F90580894091F12F418F4BE
:100B20000EC008F00DC00DD0FF202AF0BB0CDD1C5C
:100B3000EE1CFF1C02C0039513F0E2DE34CFB8CFE9
:100B4000BECF9F92FF92EF928D2DFF24EE24DD24E5
:100B5000BB2493E0849F1001829FB00CD11CE21C47
:100B6000F31C839FD00CE11C2224F21C9A9531F0D7
:100B7000BD2CDE2CEF2CFF248F91ECCF9F9008959D
:100B8000EBDEFFDE503829F090E869270CC00AF050
:100B900045D009CF5FE322273327442701C0DCDE9D
:100BA000F0DE5038B1F3003899F3902F951B8BF39A
:100BB00012F434D0FACF983118F022273327442783
:100BC000983028F0232F342F44279850F9CF9923B9
:100BD00029F04695379527959A95D9F7912F96271D
:100BE00042F014D0B0F6F794E794D7940F5F8BF6E9
:100BF0005FCF10D051F008F4BADEFF2052F2DD0CC6
:100C0000EE1CFF1C0150CBF753CF59CFD20EE31E81
:100C1000F41E0895D21AE30AF40A0895DF92EF92BF
:100C2000FF920F931F93D22EE32EF42E052F162F33
:100C30006F915F914F913F912F910895F1DDD02CED
:100C4000EFDDE02CEDDDF02CEBDD002D0895E8DD8F
:100C5000202DE6DD302DE4DD402DE2DD502D089520
:100C6000086EBE48153B8242E6E91D425F7089303E
:100C70000000803F000080436F12833A0000204153
:100C800043616C6962726174696F6E00436F6D706D
:100C90006C657465642E2E2E00002A2043616C69F9
:100CA00062726174696E67202A00506C65617365B9
:100CB00020576169742E2E2E0000206B487A0000A8
:040CC0002075480053
:00000001FF
