:020000040000FA
:1000000064002717A7170721861383166F30860011
:10001000831293200608F400831640308600831272
:10002000E9204322FD202D3088201421992014211D
:100030003E08B6003F08B7004008B8004108B900C4
:10004000861799201421992014213E08BA003F08F0
:10005000BB004008BC004108BD0086139920142154
:1000600083166F308600831293200608F3008316F0
:10007000403086008312731C4928F31C5028731DDE
:100080005A28F31D592886134A1C65284A10532202
:1000900065284A140A30F107031C6528F00A652810
:1000A0004A14F630F107031C5628F00AFF30F00717
:1000B00065288617FD201421FB203F08A400400876
:1000C000A3004108A2004F213028FD2099201421CF
:1000D0003E083F044004031D70280030882030286B
:1000E000C80113221122061F7D28F821C808031D0C
:1000F00085282130882058213028FC21C808031D7C
:100100008528273088208D2130280030882030280D
:1001100083169B001C141A08831203190800A520DB
:1001200083169B0A8A28FD30F5006630F6009E286B
:100130009A209A207E30F5002030F600F60F9E2897
:10014000F50F9E2800340F39303EF41AAD28C6034F
:10015000031DAD28C700042147088616B500350EDB
:10016000B2203508F200721C861172188615F21C36
:100170000611F2180615721D861072198614F21DEA
:100180000610F21906140616000006124230F50099
:10019000F50BC82800341830B300C201C301C401F4
:1001A000C501423084000430B40033308007801928
:1001B000F039801B0F398002840AB40BD528A20DB8
:1001C000A30DA40DC50DC40DC30DC20DB30BD128D5
:1001D00008009A20861206120330B2209A200330BB
:1001E000B2200330B2200230B2200C30052128307A
:1001F000052106300521013000290930C6000230F2
:10020000022193288612AE28C0300221C62806306B
:100210009F00831600309F0037308100E730850053
:10022000403086008312080081010B11BE01BF011E
:10023000C001C10136218316F7308500831200000A
:10024000000000000000000044210108C0008316E7
:100250000112000001168312C103010840060319B0
:1002600027298316E730850083120800FF30F50048
:100270007F30F600F530F700F70F3C294421F60FE8
:100280003C29F50F3C2900340B1D4C290B11BF0AEA
:10029000031D4B29BE0A0800000000004B29CB209B
:1002A000BE21C021C221C421C621C821CA21CC2916
:1002B0004908A52042080F3903196429A320C22147
:1002C000C421BC21C6217729430E0F3903196E2999
:1002D000A320C421BC21C621C821772943080F3996
:1002E00003197929A320BC21C621C821CA211130B4
:1002F0008828440E0F39031D86292030A520440884
:100300000F39031D87292030A5208829C621C8213F
:10031000CA21BC21CC21153088284908A5204208D3
:100320000F3903199929A320C221BC21C421C62158
:10033000A229430E0F390319A429A320BC21C421EB
:10034000C621C8211930882843080F390319AE295E
:10035000A320C621C821BC21CA21BA29440E0F39C5
:10036000031DB5292030A520B629C621C821BC21EE
:10037000CA21CC211D3088282E30A528420EA32862
:100380004208A328430EA3284308A328440EA32809
:100390004408A328450EA3284508A328EE23D32903
:1003A0007623D3292623C8043008A9003108AA00DF
:1003B0003208AB0008002908B0002A08B1002B0859
:1003C000B2002308A9002408AA002508AB000800F1
:1003D0002308A9062906A906A3002408AA062A06B6
:1003E000AA06A4002508AB062B06AB06A50008004C
:1003F000D0212922D221072AD2211B22D22129222F
:10040000E821D0212F22DB21D221E821D021A41FF5
:100410000B2A2D300C2A2030C900A413CA22C8048C
:10042000CB283322142A31222F22D021DB21D221C2
:100430002322E821CE29DB21B830A5006030A400BA
:10044000FA30A3000800DB21A501A401A3010130BB
:100450003F2A70308400DB21A501A4013B2A3630FD
:10046000342A3A30342A3E30013E8400DB21A50193
:100470000008A400840A0008A300840A0008A2005F
:100480008922C804080083163E309B0083124E2246
:10049000F0004C22F100080083169B0A83161C14FE
:1004A0001A088312080083163E309B0070085D22F4
:1004B00071085C22831208009B0A9A001C155530B3
:1004C0009D00AA309D009C149C18642A83128C13F2
:1004D00083160800AF012408031D742A2308A40012
:1004E0000319842AA301AF152F08A502031D031CBD
:1004F000E22B0310A41B812AA30DA40DA50B7A2ABD
:10050000E22BA61FA4130034A401A301A201A5019C
:1005100000349630A500A601A41F972AA209A309BA
:10052000A409A20A0319A30A0319A40AA617AF0172
:100530002408031DAC2A2308A4002208A300A2015A
:10054000AF152408031DAC2A2308A400A301AF1192
:100550002F1624080319842A2F08A502031D031C43
:10056000E22B0310A41BBA2AA20DA30DA40DA50B08
:10057000B22AE22B271B231C812AA21F812AA30A4D
:100580000319A40A031D812AA40CA30CA50A0319AC
:100590006C2B812AA2012508031900342408A60027
:1005A000A4179630A502A51F1A2BA509A50A083085
:1005B0002502031CF62AA500A20D2308A200240888
:1005C000A300A40108302502031CF62AA500A20DF1
:1005D0002308A200A30108302502031CF62AA50067
:1005E000A20DA2012508031D0310FF2A25080319E7
:1005F000FF2A0310A40CA30CA20CA50BF92A271B9D
:10060000221C0B2B031C0B2BA20A0319A30A031990
:10061000A40AA41B1A2BA61F0034A409A309A2092B
:10062000A20A0319A30A0319A40A0034A401A3010E
:10063000A20100342714A71FFF34A401A61FFF3016
:10064000A400A300A200A60DA40CFF342508031DDE
:100650002B080319842A24082A06A6002B08A507BC
:100660007E30031C372BA50203186C2B3A2BA502F6
:10067000031CE22B2408A2002308A100A217AA173A
:100680000310A401A3011030AF00211C4D2B290839
:10069000A3072A0803182A0FA407A40CA30CA20C72
:1006A000A10C0310AF0B452BA41B5A2BA20DA30DBD
:1006B000A40DA503271B231C692BA21F692BA30ACA
:1006C0000319A40A031D692BA40CA30CA50A031982
:1006D0006C2BA61FA4130034A714A71FFF34FF30F0
:1006E000A500A400A300A60DA40CFF342B08031939
:1006F000EC2B25080319842A24082A06A600A4172F
:10070000AA17AF012408A2002308A1002908A1020A
:100710002A08031C2A0FA202A201A101031C962B86
:100720000310A40CA30CA20C0130AF002B08A502EF
:10073000031CA02B7E302F07A50703186C2BA52BBD
:100740007E302F07A507031CE22B1030AE00A10D51
:10075000A20DA30DA40DAF0D2908A3022A08031CA6
:100760002A0FA4022A0DAF042F1CB82B2114BF2B73
:100770002908A3072A0803182A0AA4072110AE0B88
:10078000A72B271B211CDB2B0310A30DA40DAF0DE2
:100790002908A3022A08031C2A0FA4022A0D2F04E9
:1007A0000139A1070318A20A031DDB2BA20CA10C1F
:1007B000A50A03196C2BA61FA2132208A400210866
:1007C000A30000342715A71FFF340130A500A401A2
:1007D000A301A60DA40CFF34A715FF348030AA0690
:1007E00024082A06AF00A201A80125082B02031C39
:1007F0000B2C2B08A0002508AB002008A5002A0818
:10080000A0002408AA002008A4002908A0002308AA
:10081000A9002008A3002B08031900342408A6000F
:10082000A417AA172B082502AB000319312C083096
:100830002B02031C282CAB002908A8002A08A900B9
:10084000AA0108302B02031C282C2608A40000341F
:100850002B080319312C0310AA0CA90CA80CAB0B04
:100860002B2CAF1F3B2CA809A909AA09A80A031918
:10087000A90A0319AA0A2808A20729080318290F98
:10088000A3072A0803182A0FA407AF1B4F2C031C29
:10089000BA2AA40CA30CA20CA50FBA2A6C2B03181D
:1008A000972AA209A309A409A20A0319A30A0319F2
:0808B000A40A8030A6066A2AA2
:02400E00623F0F
:104200002000200020004F00760065007200200092
:10421000520061006E006700650020002000200051
:10422000000020006E0046000000200070004600E4
:10423000000020006D0048000000200075004800CC
:1042400000002000430020003D002000000020006E
:104250004C0020003D002000000020002000430012
:1042600061006C0069006200720061007400690006
:104270006E006700200020002000000027001000D2
:00000001FF
